:020000000C945E
:100002003B000C94A5000C94AD000C9400000C94E1
:100012002B010C9400000C9400000C9400000C9432
:1000220000000C94B5000C9400000C9491000C9408
:1000320000000C9400000C9400000C9400000C943E
:1000420000000C9400000C9400000C9400000C942E
:1000520000001027E80364000A00010000100001FC
:10006200100001000000000025640A0004000400E2
:1000720066000000F894EE27ECBBF1E0FBBFEBBF9B
:10008200E5BF8DE0A2E0BB27ED938A95E9F780E01A
:1000920094E0A0E6ED930197E9F7EEE6F0E08591B2
:1000A2009591009761F0A591B59105901590BF01CA
:1000B200F00105900D920197E1F7FB01F0CFEFE51A
:1000C200EDBFE4E0EEBFC0E6D1E00C944301AA9399
:1000D200E881E7B98BE18A95F1F7369A349BFECF36
:1000E200349AE4B1F5B105C0AA935D9BFECFE881D5
:1000F200ECB9219608950E9448030E948B011E2F9D
:1001020000E0011748F4AA81BB81EE27A00FBE1FB1
:10011200AC91EADF0F5FF5CF19810881249608952B
:100122000E944F031A931CB1A12FDEDF113609F48E
:10013200A89A123609F4A898133609F4A99A143623
:1001420009F4A998199178C0EA93EFB74424552489
:10015200949AEFBFE9911895EA93FA93E1E0F0E0FF
:100162002F01F991E99118950E944F03E3E8E2BF4C
:10017200F30131963F01E4EFF1E06E167F062CF0B9
:10018200E1E0F0E0E415F50509F056C0949B02C0E9
:10019200949801C0949AA0E09ADF66277727E093AB
:1001A2006101F09362016093630170936401A8E8B6
:1001B200B3E180E090E00E949103DF01CB01EFEF19
:1001C200F3E060E070E00E94B103E0936501F09318
:1001D20066016093670170936801A0916501B09117
:1001E20066018091670190916801EAE0F0E060E0C9
:1001F20070E00E94B103E0936901F0936A01609399
:100202006B0170936C01E0E6F1E0FA93EA93EAE69F
:10021200F0E0FA93EA93E0916901F0916A0160914A
:100222006B0170916C010E94DE0384E00E94140352
:100232002896A0E6B1E05FDFE991EFBFF991E9917D
:10024200B991A9919991899179916991F9901990AE
:1002520009901895EA93E3E8E4BDE9911895B699F7
:1002620007C0A89B02C0A89801C0A89AB69BFECF5F
:10027200B79907C0A99B02C0A99801C0A99AB79BC8
:10028200FECF0895C69A8E98C79A8F98E0E0E5BB94
:10029200EFEFE4BBEEEFE2BBE0E0E1BB94988C9AB7
:1002A200929A8A98939A8B98E3E0E3BFE3E8E2BFDD
:1002B200E0E0ECBFE2BDE4E0E5BDE3E8E4BDE0E0A0
:1002C200E3BDE1E4E9BFEBB7E06CEBBFEAE0E5BF19
:1002D200E0E0E4BFE0ECEABFE0E0EBB9E8E9EAB96C
:1002E200E6E8E0BDE0E0E0BDE3E3E9B9E0E0E7B97C
:1002F200E3E8E6B97894042C052821F4949AA898A6
:10030200A99806C0E1E0F0E0E415F50509F4A7DFDD
:10031200F2CFFFCFBA93AA93A991B991EE27FF2703
:100322006D91662311F03196FBCF0895BA93AA938B
:10033200AA27BB27E991F9910590002011F01196A7
:10034200FBCFFD0108950E94480312960E94D60336
:10035200309759F1AA81BB8114960E94D6038F016E
:10036200309761F00230E0E01E0798F0F801319713
:100372008F01AA81BB811496ED93FC93AA81BB8164
:100382001296ED91FD913196FE93EE933197AC81E9
:10039200A083AA81BB810E94D603FF232AF0ED919C
:1003A200FD913196FE93EE9306C0AA81BB81EFEFD9
:1003B200FFEFED93FC931981088125960895BA9376
:1003C200AA9326970E94E30310E0AC85BD85E0E086
:1003D200F0E0ED93FC93EA89FB893196EA8BFB8B83
:1003E2003197E4912E2FE03009F415C1E12FE0306E
:1003F20039F4253211F411E002C00E945D030AC1F2
:10040200E130A9F4253219F40E945D0302C112E021
:1004120040E000E02D3211F401E0FCC02B3211F477
:100422004BE2F8C0203211F440E2F4C002C0E230E4
:1004320039F450E013E0203311F40068EBC003C03C
:10044200E33009F0E7C0203310F02A3308F007C088
:10045200AAE05A9F502DE22FE0535E0FDBC0E22F3D
:10046200E33649F40E946403E889F989A481AA93D6
:100472000E946A03CEC0E33741F40E9464030E94E3
:1004820070030E948B011E2F0AC0E03761F40E94A4
:1004920064030E9470030E9497011E2F086002608D
:1004A2000F7730E034C0E43611F0E93611F404601D
:1004B20002C0E53731F4E4E5F0E0EE83FF8315E0B6
:1004C2000CC0E83511F4086003C0E83709F0A1C098
:1004D200EEE5F0E0EE83FF8314E002FF14C00E9419
:1004E20064030E947A03AB85AA233AF4EA85FB856A
:1004F2000E948D03EA87FB874DE2403011F01F5FB7
:1005020001C00B7F04C00E9464030E947A0300FDB5
:1005120011C0151778F407FF08C002FF04C00B7F53
:10052200242F115001C020E301C020E20E945D038C
:100532005150EFCF312F01FF17C03030A1F003FF30
:1005420006C0EE81FF812591EE83FF8305C0AE8157
:10055200BF812D91AE83BF830E945D03503009F0AD
:1005620051503150EACF4BC020E3EE81FF810E940F
:10057200DA03E887F987EE81FF813296EE83FF8303
:10058200E885F985AA85BB85AE17BF0750F02F5FB6
:10059200A885B985EA85FB85EA1BFB0BEA87FB8701
:1005A200EFCF2A3328F003FF02C0295F01C0295D83
:1005B20004FD1AC0213320F4A885B985119709F4E6
:1005C20009C0531710F000FF01C013C020E207FF5B
:1005D2000BC020E3006102FF07C00B7F4A930E9419
:1005E2006A03503009F051500E945D03503009F007
:1005F20051503150A885B985129708F0B5CF00FF48
:1006020008C0503031F05150E0E2EA930E946A0390
:10061200F8CF10E0E0CEAC85BD850E94D6030E94E3
:10062200EA0364960895FF92F82E26970E94E50346
:100632000E948203309719F4EFEFFFEF23C0DE012F
:1006420016960E9489038D010E948203EE83FF8326
:10065200E0E0E887E987DE011A960E9489030E949A
:10066200D603FA93EA931A930A93E4EAF1E0FA932F
:10067200EA93DE011A96A3DE9F01AE81BF81E0E01C
:10068200EC93F9010E94EC032A96FF900895BA9325
:10069200AA931A930A93AA81BB8108950A921A9285
:1006A200FA926A937A938A939A93AA93BA93EA9361
:1006B200FA93EFB7EA9308952A93AD85BE85EF8545
:1006C200F88909950895E889F9893497E88BF98BB7
:1006D2000895AD85BE85EF85F88909950895A889A5
:1006E200B98914960E94D603EE83FF83AE81BF813F
:1006F2000895A889B98914960E94D603EA87FB87D0
:100702000895DE011C960E9489030E94D603089573
:100712000024AF0DB01D0895F195E195F0400895C4
:100722007A9F702D6B9F700DF89F700DE99F700D71
:100732006A9F602D710DFB9F600D711DE89F600D1A
:10074200711D8827FA9FF02D610D781FEB9FF00D28
:10075200611D781FEA9FE02DF10D681F781F089533
:100762003F934F935F93002411244427552730E28F
:10077200AA0FBB1F881F991F001C111C441F551F65
:100782000E1A1F0A460B570B28F40E0E1F1E461F89
:10079200571F01C0A1603A9559F7FD01BC01D00174
:1007A200CA015F914F913F910895ED91FC9111978C
:1007B20008950590F491E02D08957A936A93FA933F
:1007C200EA9308955A934A933A932A931A930A936F
:1007D20008955D814C813B812A81198108810895A8
:00000001FF
